:100000000C94DD000C94001C0C94D91B0C94B21BB6
:100010000C948B1B0C9405010C9405010C94641B2F
:100020000C9405010C9405010C94271C0C94A51C40
:100030000C9405010C9405010C9405010C94050128
:100040000C9405010C9405010C9405010C94050118
:100050000C9405010C9405010C9405010C941A1BD9
:100060000C9405010C9405010C9405010C940501F8
:100070000C9405010C9405010C9405010C940501E8
:100080000C9405010C9405010C9405010C940501D8
:100090000C9405010C9405010C9405010C940501C8
:1000A0000C9405010C9405010C9405010706050448
:1000B0000100080A0B0C0D09080B000202020000E7
:1000C00009040000010202000005240010010524BB
:1000D000010101042402060524060001070581032D
:1000E00010004009040100020A0000000705020296
:1000F00040000007058302400000040309041201C8
:100100000002EF0201404123378000010102030198
:1001100041726475696E6F204C4C43004D6964698F
:100120005661646572735772617070657200000089
:100130000000240027002A002D00300000000000ED
:100140002300260029002C002F00000000020009D7
:100150000F0000030401000C00000000000000007C
:1001600000000000000000000004080201104080B0
:10017000401020408040800802040180402010028E
:1001800001108010204040200000000025002800C1
:100190002B002E00310004040404040304050202B1
:1001A0000202040302020202060606060606040410
:1001B000020202040400EB1FD72711241FBECFEF59
:1001C000DAE0DEBFCDBF26E0A4E5B3E001C01D92BA
:1001D000A03CB207E1F713E0A0E0B1E0E6E9F3E507
:1001E00002C005900D92A435B107D9F710E0CCED0F
:1001F000D0E004C02197FE010E945B28CB3DD107CF
:10020000C9F70E9416230C94BE290C94000081505B
:100210008F3008F047C0E82FF0E0EF5EFE4F0C94FF
:100220005B282E013201200126012A0152015201D0
:10023000520135013B013F014301490152014D018A
:10024000809180008F778093800008958091800056
:100250008F7DF9CF80918000877FF5CF84B58F7730
:1002600084BD089584B58F7DFBCF809190008F77FA
:10027000809390000895809190008F7DF9CF8091B8
:100280009000877FF5CF8091C0008F778093C0006A
:1002900008958091C0008F7DF9CF8091C200877F43
:1002A0008093C2000895CF93DF93282F30E0F901A7
:1002B000E65BFE4F8491F901E759FE4FD491F901B5
:1002C000EA56FE4FC491CC23A1F081110E94070190
:1002D000EC2FF0E0EE0FFF1FE45CFE4FA591B49110
:1002E000EC91ED2381E090E009F480E0DF91CF9183
:1002F000089580E090E0FACF1F93CF93DF93282FEB
:1003000030E0F901E65BFE4F8491F901E759FE4FB9
:10031000D491F901EA56FE4FC491CC23A9F0162FCF
:1003200081110E940701EC2FF0E0EE0FFF1FE8574C
:10033000FE4FA591B4918FB7F894EC91111108C0BC
:10034000D095DE23DC938FBFDF91CF911F9108956D
:10035000DE2BF8CFCF93DF9390E0FC01E759FE4FFF
:1003600024918A569E4FFC0184918823C9F090E025
:10037000880F991FFC01E25DFE4FA591B491FC012D
:10038000E857FE4FC591D49161110DC09FB7F89405
:100390008C91209582238C938881282328839FBF6A
:1003A000DF91CF910895623051F49FB7F8943C915A
:1003B000822F809583238C93E8812E2BEFCF8FB7EC
:1003C000F894EC912E2B2C938FBFEACF3FB7F89483
:1003D00080919D0490919E04A0919F04B091A004EF
:1003E00026B5A89B05C02F3F19F00196A11DB11D90
:1003F0003FBFBA2FA92F982F8827BC01CD01620FCC
:10040000711D811D911D42E0660F771F881F991F86
:100410004A95D1F708950F931F93CF93DF93CDB7EC
:10042000DEB729970FB6F894DEBF0FBECDBF0E948E
:10043000E6010091BC051091BD052091BE053091EB
:10044000BF05601771078207930740F46093BC05EE
:100450007093BD058093BE059093BF050091BC05C8
:100460001091BD052091BE053091BF05601B710B39
:10047000820B930B6C32714081059105C0F2F894A8
:100480008091B1059091B2059A838983E091B60578
:10049000F091B705DF011196808189879091AD05B4
:1004A000E091C005F091C1058091C205992309F43E
:1004B00045C09081982B98879081809589238F8360
:1004C0008F818C8388E08B8358856F8149853B8140
:1004D0002C8189819A81508347FD252F3A9520836D
:1004E000262F39F0441F00C000006083000000C0C8
:1004F000F2CF38E04D9160830000019761F7F093EF
:10050000C105E093C00549873B832C839A83898387
:1005100078940E94E6016093BC057093BD058093BA
:10052000BE059093BF0529960FB6F894DEBF0FBEA7
:10053000CDBFDF91CF911F910F9108959081982B9E
:1005400098879081809589238F838F818E8388E01F
:100550008D8358856F8149853D812E8189819A815E
:10056000508347FD252F00C000C0208300C000C07D
:1005700000C000C000C060830000262F3A9541F003
:10058000441F000000C000C000C000C000C0E8CF91
:1005900038E04D9100C0608300C0019709F7F093E7
:1005A000C105E093C00549873D832E83AFCF8F926D
:1005B0009F92AF92BF92CF92DF92EF92FF924B0148
:1005C0005C010E94E6016B017C010E94E6016C194E
:1005D0007D098E099F09683E734081059105A8F346
:1005E00021E0821A9108A108B10888EEC80E83E0C4
:1005F000D81EE11CF11C81149104A104B10429F757
:10060000FF90EF90DF90CF90BF90AF909F908F9032
:1006100008952FB7F8946091990470919A0480918D
:100620009B0490919C042FBF089508958093E90046
:100630008091F200882319F08AE38093E8000895FE
:100640008091F4048F5F0C94160340916A045091DA
:100650006B04209168043091690442175307B4F485
:100660009091E8009570E1F39091E80092FD19C037
:100670008093F10080916A0490916B0401968F73CE
:100680009927892B19F48EEF8093E80080916A04F2
:1006900090916B04019690936B0480936A0481E0BF
:1006A000089580E00895DF92EF92FF920F931F93D9
:1006B000CF93DF93D82E8A01EB017B01E40EF51E68
:1006C000CE15DF0559F0D7FE12C0FE0184910E94BD
:1006D000250321968111F4CF0FEF1FEFC801DF91A1
:1006E000CF911F910F91FF90EF90DF900895888137
:1006F000EECF2FB7F89487708093E9009091E800CF
:10070000892F807295FF04C09091F20080E4891BCC
:100710002FBF08957F928F929F92AF92BF92CF92F8
:10072000DF92EF92FF920F931F93CF93DF93C82E28
:100730008B017A0180917104811110C08FEF9FEFBE
:10074000DF91CF911F910F91FF90EF90DF90CF90AD
:10075000BF90AF909F908F907F90089580916F048D
:1007600080FF05C08091E00082608093E000CE2D84
:10077000DF2DD12C8AEFB82E8C2D8770982E8C2DE2
:100780008072882E8C2D8074782E9AE3A92E209763
:1007900019F4DD2009F452C08C2D0E9479038111D7
:1007A0000AC0BA94BB2051F261E070E080E090E0B2
:1007B0000E94D702ECCF8C171D0611F00CF08C2F85
:1007C0009FB7F8949092E9002091E80025FD02C0BF
:1007D0009FBFDDCF282F30E0C21BD30B882029F02C
:1007E0008150A0F01092F100FBCFF801C7FC0AC0C5
:1007F000815050F041914093F100FACF44914093E1
:10080000F10031968150D0F7020F131FDD2021F047
:10081000A092E800D12CDCCF8091E80085FD07C0D4
:10082000A092E800DD24D394209791F2F3CF209793
:1008300079F6772069F2A092E800CACF5D9A84E643
:1008400080936E04C7017CCF90917104992319F1B4
:100850003FB7F89487708093E9008091F20090E0B0
:10086000481759070CF4CA01282FFB0154E6215000
:1008700038F0289A50936D044091F1004193F7CFDE
:10088000009739F02091F200211103C02BE620934C
:10089000E8003FBF08958FEF9FEF08959FB7F8944A
:1008A00087708093E9008091F2009FBF08956150A6
:1008B00030F02091F100FC0120830196F8CF289AB6
:1008C00084E680936D0408958091600481110DC0C9
:1008D00082E080935C0484E080935D0410925F0466
:1008E00010925E0481E0809360048CE594E00895AA
:1008F0000F931F93CF93DF931F92CDB7DEB782E0A4
:10090000898342E450E068EB70E080E80E94530382
:100910000E946404DC0112960D911C9101151105D1
:1009200089F0D801ED91FC910280F381E02DBE01A8
:100930006F5F7F4FC801099597FD04C0F8010085DE
:100940001185ECCF89810F90DF91CF911F910F918D
:100950000895CF93DF93EC0180910B01882331F050
:1009600083E00E948A031816190634F081E090E0B3
:100970009B838A8380E090E0DF91CF910895CF93AD
:10098000DF931F92CDB7DEB76983DC01ED91FC9157
:100990000280F381E02D41E050E0BE016F5F7F4FA8
:1009A00009950F90DF91CF91089583E00C94160381
:1009B00083E00E94790390E00895CF93DF931F9224
:1009C000CDB7DEB7FC018485958597FD08C02FEF74
:1009D0003FEF358724870F90DF91CF91089541E055
:1009E00050E0BE016F5F7F4F82E00E9424040197B8
:1009F00019F4898190E0EFCF8FEF9FEFECCF0F9349
:100A00001F93CF93DF931F92CDB7DEB78C01FC010C
:100A10008485958597FF0FC041E050E0BE016F5F70
:100A20007F4F82E00E942404019771F4898190E055
:100A3000F80195878487F801848595850F90DF916B
:100A4000CF911F910F9108958FEF9FEFF1CFFC0190
:100A50008485958597FD06C082E00E944E0490E053
:100A60000196089582E00E944E0490E0089590E07F
:100A700080E0089580E008950F931F93CF93DF9354
:100A8000CDB7DEB7C456D1090FB6F894DEBF0FBE9E
:100A9000CDBFFC01DB019C919E5F9C939E01295F71
:100AA0003F4F8AE5D9011D928A95E9F788E089834D
:100AB0008BE08A8322E02C8391E09D839E8339E042
:100AC000398764E06A879E879F873A8B44E24B8B25
:100AD0009C8BA0E0B1E0BE8BAD8B09E010E0188FDD
:100AE0000F8B998F3B8F6C8F2F8F98A353E059A357
:100AF00087E08CA34DA39EA3B8A7AFA3A1E4B0E069
:100B0000BAA7A9A786E08BA74CA72DA79EA79FA74A
:100B100089AB4AAB2BAB2CAB2DAB3FAB48AF59AF3E
:100B20009AAF5BAF9CAF2DAF9EAF21963FAF2197A1
:100B300022964FAF229723965FAF239724962FAF2D
:100B4000249725966FAF259726969FAF26972796D1
:100B50009FAF279728969FAF28972A963FAF2A974F
:100B600045E02B964FAF2B972D962FAF2D9760E436
:100B700070E02F967FAF6EAF2F9763964FAF63975E
:100B800085E264968FAF649765969FAF659766968A
:100B90009FAF669767969FAF679768963FAF6897D6
:100BA00069964FAF69976B962FAF6B976D967FAF36
:100BB0006EAF6D97A1964FAFA197A2968FAFA297F8
:100BC000A3969FAFA397A4969FAFA497A5965FAF58
:100BD000A59792819B839B879F5F9A8F9D8F83812F
:100BE0002C968FAF2C978F5F80686A968FAF6A972D
:100BF00044E650E0BE016F5F7F4F80E00E945303E8
:100C0000CC59DF4F0FB6F894DEBF0FBECDBFDF91DA
:100C1000CF911F910F9108950F931F93CF93DF935F
:100C2000EC018B018E819F81009711F00E940C06D0
:100C3000E881F981008CF18DE02DB801CE01DF91C2
:100C4000CF911F910F910994CF92DF92EF92FF9273
:100C5000CF93DF93EC016A017B018E819F81009726
:100C600011F00E942406E881F9810688F789E02DB9
:100C7000B701A601CE01DF91CF91FF90EF90DF90F9
:100C8000CF9009940F931F93CF93DF9300D000D0A0
:100C90001F92CDB7DEB78C0129833A834B835C83E7
:100CA0006D83DC0116968D919C91009711F00E9446
:100CB0004206D801ED91FC910488F589E02D298147
:100CC0003A814B815C816D81C8010F900F900F902C
:100CD0000F900F90DF91CF911F910F910994CF92B8
:100CE000DF92EF92FF92CF93DF93EC016A017B01D9
:100CF0008E819F81009711F00E946F06E881F98133
:100D00000288F389E02DB701A601CE01DF91CF91D2
:100D1000FF90EF90DF90CF900994FC01A281B38106
:100D2000109749F0ED91FC9111970684F785E02D1D
:100D3000AC01CD0109940895FC014081342F369512
:100D4000862F8695380F2181972F920F22952F702D
:100D500072957F70270F862F8170330F8423229521
:100D6000207F9F70832B922B0895CF93DF93DB011D
:100D70001496ED91FC911597309701F124813581FE
:100D800012964D915C91139721153105D1F0E9012F
:100D90007B836A8353834283B583A4831396FC9336
:100DA000EE93129715963C932E9314974115510587
:100DB00061F0DA011596FC93EE931497DF91CF91D1
:100DC0000895EC0179836883E5CFEC01FB83EA8326
:100DD000F5CFDC015696ED91FC91309711F0CB01E7
:100DE00009940895DC015496ED91FC91309719F027
:100DF000CB01BA01099408950F931F93CF93DF930A
:100E0000CDB7DEB72A970FB6F894DEBF0FBECDBFC1
:100E10002E833F83488759876A87DC015296ED917C
:100E2000FC91309771F585E0FE013696DE01119652
:100E300001900D928A95E1F7009178041091790460
:100E40000115110531F1D801ED91FC910284F38572
:100E5000E02D29813A814B815C816D81C801099522
:100E6000882311F1B80188E794E02A960FB6F89428
:100E7000DEBF0FBECDBFDF91CF911F910F910C94BC
:100E8000B5064E815F81688579858A8509958823B5
:100E900051F22A960FB6F894DEBF0FBECDBFDF9198
:100EA000CF911F910F910895F80102811381C8CF4E
:100EB000EF92FF920F931F93CF93DF93D42FC52F01
:100EC000162F072FDC015096ED91FC913097C1F45D
:100ED0008D2F807F803B09F04AC0C93781F5C091D2
:100EE0008804D09189042097C9F0E881F9810680AF
:100EF000F781E02DCE0109950A80DB81C02DF3CF6B
:100F0000642F752F812F902F0995882309F3DF9186
:100F1000CF911F910F91FF90EF900895C0918004A1
:100F2000D0918104209799F3E881F9810680F781B7
:100F3000E02DCE0109950A80DB81C02DF3CFE09032
:100F40008804F0908904CB3709F091C0C0919004D7
:100F5000D09191042097D9F2E881F9810680F78138
:100F6000E02DCE0109950A80DB81C02DF3CF813BB6
:100F700060F5803949F0E0908C04F0908D04803A5F
:100F800009F455C0803819F6E0909004F09091046F
:100F9000E114F10409F4BBCFD701ED91FC91028477
:100FA000F385E02D4D2F5C2F612F702FC701099520
:100FB0008823B1F1B70180E994E0DF91CF911F91CF
:100FC0000F91FF90EF900C94B506803D09F470C02E
:100FD000803E09F492C0803C09F099CFE0908404EF
:100FE000F0908504E114F10409F491CFD701ED915B
:100FF000FC910284F385E02D4D2F5C2F612F702F23
:10100000C7010995882309F44FC0B70184E894E02B
:10101000DF91CF911F910F91FF90EF900C94B50647
:10102000F701E280F380B4CFF701E280F380E114AE
:10103000F10409F46CCFD701ED91FC910284F385A2
:10104000E02D4D2F5C2F612F702FC701099588234C
:1010500059F3B7018CE894E0DF91CF911F910F9184
:10106000FF90EF900C94B506F701E280F380E11455
:10107000F10409F44CCFD701ED91FC910284F38582
:10108000E02D4D2F5C2F612F702FC701099588230C
:1010900059F3B70188E894E0DF91CF911F910F9148
:1010A000FF90EF900C94B506F701E280F3809ACFA1
:1010B000E0908004F0908104E114F10409F427CF5A
:1010C000D701ED91FC910284F385E02D4D2F5C2F2B
:1010D000612F702FC7010995882359F0B70180E867
:1010E00094E0DF91CF911F910F91FF90EF900C94BE
:1010F000B506F701E280F380DFCFE0907C04F0904A
:101100007D04E114F10409F402CFD701ED91FC91C3
:101110000284F385E02D4D2F5C2F612F702FC701C6
:101120000995882359F0B7018CE794E0DF91CF91BE
:101130001F910F91FF90EF900C94B506F701E2809C
:10114000F380DFCFDC0118968D919C91009739F0E8
:10115000DC01ED91FC910284F385E02D0994089562
:10116000DC0118968D919C91009739F0DC01ED918E
:10117000FC910084F185E02D09940895CF93DF93CD
:10118000CDB7DEB72A970FB6F894DEBF0FBECDBF3E
:101190002E833F83488759876A8725E0FE0136966C
:1011A000DE01119601900D922A95E1F7DC01189667
:1011B0008D919C910097A1F0DC01ED91FC9106804E
:1011C000F781E02D29813A814B815C816D812A96DE
:1011D0000FB6F894DEBF0FBECDBFDF91CF9109945B
:1011E0002A960FB6F894DEBF0FBECDBFDF91CF9128
:1011F0000895DC0118968D919C91009739F0DC01DF
:10120000ED91FC910480F581E02D09940895DC01B5
:101210001A968D919C91009739F0DC01ED91FC912B
:101220000084F185E02D099490E080E00895049712
:101230000C940709DC0118968D919C91009739F068
:10124000DC01ED91FC910088F189E02D099490E09A
:1012500080E00895EF92FF920F931F93CF93DF9357
:10126000EC018B017A018C859D85009729F0681728
:10127000790711F00E940A1F1D861C868E819F81AE
:10128000009781F02A853B852E153F0559F4DC0136
:10129000ED91FC910684F785E02DAE014C5F5F4F28
:1012A000B801099588859985009759F0DC01ED9181
:1012B000FC910684F785E02DAE014C5F5F4FB801CD
:1012C00009958A859B850097D9F0E816F906C1F043
:1012D000DC01ED91FC910680F781E02DAE01B801B3
:1012E00009956E857F856115710551F08A859B850D
:1012F000DC01ED91FC910480F581E02DAE010995B2
:101300008A819B810097A9F09C012C5F3F4FE216D8
:10131000F30679F0DC01ED91FC91068CF78DE02D60
:10132000AE01B801DF91CF911F910F91FF90EF9027
:101330000994DF91CF911F910F91FF90EF90089545
:10134000EF92FF920F931F93CF93DF93EC018B01EA
:101350007A018C859D85009729F06817790711F02F
:101360000E940A1F1D870C878E819F81009781F044
:101370002A853B852E153F0559F4DC01ED91FC9142
:101380000484F585E02DAE014C5F5F4FB8010995EF
:1013900088859985009759F0DC01ED91FC910484D2
:1013A000F585E02DAE014C5F5F4FB80109958A8548
:1013B0009B850097D9F0E816F906C1F06E857F8508
:1013C0006115710541F0DC01ED91FC910680F7811A
:1013D000E02DAE0109958A859B85DC01ED91FC919C
:1013E0000480F581E02DAE01B80109958A819B81C9
:1013F0000097A9F09C012C5F3F4FE216F30679F0AD
:10140000DC01ED91FC91048CF58DE02DAE01B8016D
:10141000DF91CF911F910F91FF90EF900994DF9191
:10142000CF911F910F91FF90EF9008951F93CF934D
:10143000DF93DC011296CD91DC91209749F02C8549
:101440003D858E859F852115310531F4009739F44E
:10145000DF91CF911F9108952F3F3F4F11F10196DA
:1014600001F11BE08C859D85009721F42E853F8539
:10147000232B71F3115061F3009739F0DC01ED91EA
:10148000FC910680F781E02D09958E859F85009758
:1014900049F3DC01ED91FC910680F781E02D09957F
:1014A000E1CF0E940A1FCF92DF92EF92FF92CF937B
:1014B000DF93FC0122813381232B89F06A017B01B8
:1014C000EC010E94160AB701A6018A819B81DF9177
:1014D000CF91FF90EF90DF90CF900C946F06DF914B
:1014E000CF91FF90EF90DF90CF900895FC01228183
:1014F00033812115310569F4FB0122853385232BC6
:1015000011F00E940A1F93878287FC017383628314
:101510000895C9010496EACFFC0122813381211587
:10152000310569F4FB0120853185232B11F00E94E0
:101530000A1F91878087FC01738362830895C90124
:10154000EBCFCF93DF93EC01888599850097E1F08D
:101550006A817B8161157105B9F0DC011296ED910C
:10156000FC911397309731F01186108613961C92D8
:101570001E921297EA81FB81309721F01186108626
:101580001B821A820E948C0A8A859B850097E1F053
:101590006E817F8161157105B9F0DC011296ED91C4
:1015A000FC911397309731F01386128613961C9294
:1015B0001E921297EE81FF81309721F013861286DA
:1015C0001F821E820E94760AE885F985309751F0C5
:1015D000A281B381109731F019961C921E92189730
:1015E00013821282EA85FB85309751F0A281B38184
:1015F000109731F01B961C921E921A97138212823A
:101600008A819B81892B21F48E819F81892B11F006
:101610000E940A1FDF91CF910895CF93DF93EC01D1
:101620008A819B81009749F004960E940D0B8A8164
:101630009B810E94A10A1B821A82DF91CF9108959B
:1016400021EA31E0FC01318320830C940D0BCF9310
:10165000DF93EC018A819B81009741F00E94270B68
:101660008A819B810E94A10A1B821A82DF91CF91FD
:101670000895CF93DF93EC0181E292E09983888310
:1016800087E392E09D838C83CE0188960E94C01FE1
:10169000CE0148960E94C01F80EC92E09983888317
:1016A00086ED92E09D838C83CE0104960E94200BF0
:1016B0008FEA91E099838883CE01DF91CF910C94DA
:1016C000270B04970C94390BE0919404F091950446
:1016D000309771F0208531858217930748F0228575
:1016E00033858217930730F00280F381E02DF0CF2D
:1016F0000E940A1FCF010895CF93DF93811520E840
:10170000920709F43DC08B32910538F5E82F8231FC
:1017100010F0EEEEE80FF0E0E455FF4FE491909109
:101720007B008E2F880F880F80729F7D892B80937E
:101730007B00E770E064E0937C0080917A00806435
:1017400080937A0080917A0086FDFCCF80917800AA
:1017500090917900DF91CF910895EC010E94640B84
:10176000DC0118962D913C911997BE01621B730BF9
:10177000ED91FC910488F589E02DDF91CF910994DA
:1017800090E080E0E7CFCF93DF93811520E89207C8
:10179000D9F0EC018B32910528F40E945301DF91BE
:1017A000CF9108950E94640BDC0118962D913C9115
:1017B0001997BE01621B730BED91FC910484F585B2
:1017C000E02DDF91CF91099480E0E9CFCF92DF92B5
:1017D000EF92FF921F93CF93DF93EC018881998161
:1017E0000E94C30B9A819295917011E0981301C0E9
:1017F00010E00E940903AB01BC018A8182FF16C080
:101800008B819C81AD81BE816A017B01C81AD90A96
:10181000EA0AFB0A91E08AE1C816D104E104F10466
:1018200008F090E08A8190FB82F98A839A81892F5F
:10183000817092FD21C0912F880F892B282F237052
:101840009A819C7F922B9A8393FB222720F9211760
:1018500041F0946010FB93F99A834B835C836D8312
:101860007E83082E000C990BDF91CF911F91FF9082
:10187000EF90DF90CF900895982FDECF1F93CF93F6
:10188000DF93811520E89207F1F08B32910528F45F
:10189000DF91CF911F910C947C01162FEC010E94D7
:1018A000640BDC0118962D913C911997BE01621BC7
:1018B000730BED91FC910084F185E02D412FDF91B8
:1018C000CF911F910994DF91CF911F9108951F939C
:1018D000CF93DF93811520E89207F1F08B329105C9
:1018E00028F4DF91CF911F910C94AA01162FEC01DF
:1018F0000E94640BDC0118962D913C911997BE0152
:10190000621B730BED91FC910480F581E02D412F5A
:10191000DF91CF911F910994DF91CF911F9108958D
:101920000F93CF93DF9300D000D0CDB7DEB7829571
:10193000807F682B69834A832B830C838091F40416
:1019400044E050E0BE016F5F7F4F8F5F0E948A03CB
:101950000F900F900F900F90DF91CF910F910895FE
:101960000F93FC01862F02812181408164E00E9457
:10197000900C0F9108950F93FC01842F6230710534
:1019800099F06330710541F06130710559F400E060
:1019900020E0408165E004C002812181408167E050
:1019A0000E94900C0F91089500E02181408166E033
:1019B000F7CF80FF11C020913D0530913E05492FA2
:1019C0004F70582F56954068792F72957F706FE74A
:1019D000C90104960C94530A08950F931F93CF9353
:1019E000DF93D82F8091AA058130C1F406E815E075
:1019F000C0E0F80181918F01813069F46C2F660F8E
:101A0000616070E088E795E00E949C060E94D90C16
:101A1000F80131971082CF5FCC3059F7D093AA05E7
:101A2000DF91CF911F910F910895DC01ED91FC9111
:101A30000480F581E02D0994CF93DF93EC018E8132
:101A40009F810E947C0B9C0144E0220F331F4A952A
:101A5000E1F756E0969587955A95E1F7822B932BFF
:101A60009C01220F331F220F331F281B390B3B878A
:101A70002A87880F892F881F990B91959D878C87BE
:101A8000DF91CF91089504960895029608950596E2
:101A900008950296089503960895029608950C9469
:101AA00020030F93CF93DF93EC01462F872F00E0A5
:101AB00020E06FE00E94900CCF51DF4F8881882397
:101AC00029F0DF91CF910F910C942003DF91CF91FA
:101AD0000F9108950F93CF93DF93EC01252F872F5C
:101AE000062F63E0423F31F000E062E0443F10F037
:101AF00020E065E00E94900CCF51DF4F8881882361
:101B000029F0DF91CF910F910C942003DF91CF91B9
:101B10000F9108950F93CF93DF93EC01252F872F1B
:101B2000E42FF0E094E0F595E7959A95E1F7062F1C
:101B30006E2F0E94900CCF51DF4F8881882329F0AF
:101B4000DF91CF910F910C942003DF91CF910F91F2
:101B5000089562E0FC01868197810C94670C62E035
:101B6000FC01868197810C94670C0895089508956F
:101B70008F929F92AF92BF92EF92FF920F931F931B
:101B8000CF93DF93CDB7DEB764970FB6F894DEBF7F
:101B90000FBECDBF7C01633009F4C6C0B0F4613024
:101BA000D1F1623009F463C064960FB6F894DEBFD9
:101BB0000FBECDBFDF91CF911F910F91FF90EF909E
:101BC000BF90AF909F908F900895643009F44FC0FC
:101BD000653051F7FC0183889488A588B688868192
:101BE0009781892B61F0C70104960E94160AB501FE
:101BF000A401D70116968D919C910E942406F701AD
:101C000080899189009781F2DC01ED91FC9104803B
:101C1000F581E02D18C0DC0153968D909D90AD901C
:101C2000BC905697B501A40104960E94530AF7018F
:101C300080899189009709F4B7CFDC01ED91FC917F
:101C40000190F081E02DA5019401B70164960FB6D3
:101C5000F894DEBF0FBECDBFDF91CF911F910F91E2
:101C6000FF90EF90BF90AF909F908F900994F701F5
:101C7000218D2F70F3E82F9FC0011124F701E80F89
:101C8000F91FE656FF4F408151818E0D9F1D4A96E8
:101C90009C878B875E874D878F85807F822B8F8780
:101CA00085E0FE013B96DE01509601900D928A95EB
:101CB000E1F785E0FE017096DE01169601900D9227
:101CC0008A95E1F785E0FE013696DE0111960190D6
:101CD0000D928A95E1F7D70116968D919C91892BEB
:101CE00071F0C70104960E94160A29813A814B813E
:101CF0005C816D81F701868197810E944206D70140
:101D000050968D919C91009709F44ECFDC01ED9196
:101D1000FC910280F381E02D0E811F812885398599
:101D20004A85B701099540CFFC010789108D86814E
:101D30009781009719F0B8010E940C06D7015096C0
:101D40008D919C91009709F42FCFDC01ED91FC91CE
:101D50000680F781E02DA801B70164960FB6F894CC
:101D6000DEBF0FBECDBFDF91CF911F910F91FF90CE
:101D7000EF90BF90AF909F908F900994CF93DF9397
:101D8000AC01FB01C481D581209721F08281938130
:101D90009B838A83DA0112968D919C9113978E17FB
:101DA0009F0721F41396DC93CE931297828193813F
:101DB000009729F0DC011596DC93CE931497DA0195
:101DC0002D913C9111972E173F0711F48D939C9301
:101DD0001582148213821282DF91CF9108950895A3
:101DE0000895FC01708B67870895FC0187859089B1
:101DF0000895FC01708B67870895FC0187859089A1
:101E00000895FC01138212821582148281E591E00B
:101E1000918380838091740490917504892B21F4BF
:101E2000F0937504E0937404A0917604B091770464
:101E3000B583A483109721F01396FC93EE93129729
:101E4000F0937704E0937604138212820895FC01E4
:101E500082E692E0918380833097A1F080913F05E4
:101E600090914005E817F90741F082819381892B11
:101E700021F484819581892B29F0BF018FE395E0BE
:101E80000C94BE0E0895FC0181E591E0918380835E
:101E90003097A1F08091740490917504E817F907C8
:101EA00041F082819381892B21F484819581892B52
:101EB00029F0BF0184E794E00C94BE0E08952AE651
:101EC00032E0FC01318320830C94430F242F60FF08
:101ED0000CC0472F4F70562F5695406B622F6F776F
:101EE00072957F7004960C94530A0895CF93DF93F4
:101EF000EC018E819F810E947C0B9C0174E0220F7B
:101F0000331F7A95E1F7E6E096958795EA95E1F734
:101F1000282B392B8A859B85280F391FC9010296EA
:101F20009695879596958795281B390B3B872A8729
:101F3000E885F985309709F009954C855D859A010A
:101F40003695322F22273795279520644115510564
:101F500049F0B9016F5771094F3F5140D0F48617CE
:101F6000970728F021583F4F28173907A8F4880F02
:101F7000892F881F990B91959D878C876E857F850A
:101F8000482F80913D0590913E05DF91CF910C94B3
:101F9000660F8617970758F3DF91CF910895CF9377
:101FA000DF93EC0106960E94E60B0297A1F49F8551
:101FB00081E098279F8720913D0530913E056D85F2
:101FC0007E85992331F04889C901DF91CF910C9426
:101FD000660F4989F9CFDF91CF910895CF93DF93B1
:101FE000EC0106960E94E60B8230910559F44F856C
:101FF0006D857E8580913D0590913E05DF91CF9165
:102000000C94660F019711F44889F2CFDF91CF91BC
:102010000895CF93DF93EC0186E792E0998388835C
:102020008AE992E09D838C8388EA92E09987888789
:1020300084EB92E09F878E87809172049091730465
:10204000009749F420914105309142052115310551
:1020500011F0C9010897C817D90721F41092730429
:10206000109272048AE692E099878887CE010896DA
:102070000E94270F80EC92E09983888386ED92E09E
:102080009D838C83CE0104960E94200B8FEA91E001
:1020900099838883CE01DF91CF910C94270B24EE96
:1020A00032E0FC01318320832AE033E0358324834E
:1020B00028E133E03187208724E233E03787268721
:1020C0000C94091004970C944F1008970C944F101F
:1020D0000E970C944F1004970C94091008970C94C9
:1020E00009100E970C94091029E431E0DC011196D7
:1020F0003C932E9312968D919C91009739F0DC01C0
:10210000ED91FC910280F381E02D09940895CF9325
:10211000DF93EC0161E08E819F810E94670C60E09B
:1021200088859985DF91CF910C94670C0895089567
:102130002AE632E0FC01318320830C94430F25EC26
:1021400031E0FC01318320830C94981060FF12C0B1
:1021500020913D0530913E05472F4F70562F5695E3
:10216000FC0160816F77406972957F70C9010496A8
:102170000C94530A08952F923F924F925F926F9260
:102180007F928F929F92AF92BF92CF92DF92EF9207
:10219000FF920F931F93CF93DF93CDB7DEB7609776
:1021A0000FB6F894DEBF0FBECDBF4C010E940903ED
:1021B000D401D896CD90DD90ED90FC90DB97D4962D
:1021C0000D911D912D913C91D797AB01BC014C19FC
:1021D0005D096E097F09401751076207730708F40C
:1021E00087C0D701C601800F911FA21FB31FF40142
:1021F00080AF91AFA2AFB3AF84A184A785A185A71B
:1022000086A186A787A187A780A580AB81A581AB82
:1022100082A582AB83A583AB2401FCE04F0E511C49
:102220003401740128E1E20EF11C1FEF60E0D401DB
:1022300016968D919C910E943E0CF40180859185AB
:102240000E94C30BD201ED912D0121E030E02C0F53
:102250003D1F2E0F311DF90191E0811190E0908317
:10226000811128C00E9409039B01AC01D4019496FE
:102270006C93949795963C93959796968C93969796
:1022800097965C93979798961C92989799961C921C
:1022900099979A961C929A979B961C92F201319765
:1022A0008081212F012E000C330B8217130611F0B1
:1022B0000CF0182F61E0F401868197810E943E0C9A
:1022C0004E145F0409F0B2CFD401DC968C91DC97F8
:1022D000813009F45DC028F1823009F40EC10E94FA
:1022E0000903D401D8966D937D938D939C93DB97CE
:1022F00060960FB6F894DEBF0FBECDBFDF91CF91D1
:102300001F910F91FF90EF90DF90CF90BF90AF9013
:102310009F908F907F906F905F904F903F902F9005
:102320000895FE0131967F018201D12C3401FAE03B
:102330006F0E711C14012EE3220E311CD701CD90BB
:102340007D01F80181918F01C816A1F06D2D660FF6
:102350009F0121503109290131E0616070E0C30122
:10236000C3120FC00E949C06BC01C1010E94A610AE
:10237000D201CC92D394E894D7F8FCE0DF12DECF00
:10238000AECF0E949C060E94D90CF2011082F2CFBF
:102390009E012F5F3F4F388B2F871D8624013AE027
:1023A000430E511C14018EE3280E311CAF85B889F1
:1023B000ED91B88BAF87EE87D30158968C918E2321
:1023C000813089F5F40124A135A146A157A160A56A
:1023D00071A582A593A5A4A4B5A4C6A4D7A4E0A87A
:1023E000F1A802A913A90E946128243F31404105A8
:1023F00051056105710581059105A9F0A0F01D85C4
:10240000110F612F616070E0C2010E949C060E9462
:10241000D90C612F616070E0C2010E949C06BC0172
:10242000C1010E94A610D30158968C91BE85B817A1
:1024300081F0B130C9F46D85660F616070E0C20152
:102440000E949C06BC01C1010E94A6102E85F301CA
:10245000208FFFEF6F1A7F0A2D852F5F2F772D8733
:102460002C3009F0A3CF3BCFD40194962C919497B4
:1024700095963C91959796964C91969797965C91E8
:10248000979798966C91989799967C9199979A9628
:102490008C919A979B969C919B979C96AC909C97BD
:1024A0009D96BC909D979E96CC909E979F96DC9013
:1024B0009F97D096EC90D097D196FC90D197D296DA
:1024C0000C91D297D3961C910E946128243F3140F1
:1024D00041055105610571058105910509F008F473
:1024E000B8CF6D85660F616070E0C2010E949C06E6
:1024F0000E94D90CF301108EACCFDD966C91611760
:1025000009F4EDCE660F61607401BAE0EB0EF11CC8
:1025100070E0C7010E949C060E94D90C1F3F61F029
:10252000612F660F616070E0C7010E949C06BC01CC
:10253000C401CE960E94A610F40115AFD0CE2AE6B3
:1025400032E0FC01318320830C94430F29E531E014
:10255000FC01318320830C949F1229E831E0FC01B7
:102560003183208325E931E03383228302960C9462
:10257000A61202970C94AD122AE632E0FC013183D8
:1025800020830C94430F25E631E0FC013183208346
:102590000C94BC1221E731E0FC01318320832DE74C
:1025A00031E03383228302960C94C31202970C9479
:1025B000CA12683F38F0DC01ED91FC91048CF58D76
:1025C000E02D09940895242F287F203F59F4403F9F
:1025D00049F06F77DC01ED91FC91008CF18DE02DDD
:1025E0005F7709940895CF93DF93CDB7DEB72A972D
:1025F0000FB6F894DEBF0FBECDBF2E833F83488752
:1026000059876A8725E0FE013696DE011196019012
:102610000D922A95E1F728853985232BA1F0DC015D
:10262000ED91FC91028CF38DE02D29813A814B8153
:102630005C816D812A960FB6F894DEBF0FBECDBFC8
:10264000DF91CF9109942A960FB6F894DEBF0FBEA2
:10265000CDBFDF91CF91089520E8240F203748F4B3
:102660006F77DC01ED91FC910688F789E02D5F77AB
:1026700009940895089508958CE293E008950895CB
:102680000895CF93DF93EC010E94270FCE01DF91D5
:10269000CF910C940629CF93DF93EC010E94200B7D
:1026A000CE01DF91CF910C940629CF93DF93EC01FB
:1026B0000E94390BCE01DF91CF910C94062904972B
:1026C0000C945513CF93DF93EC010E949F10CE0121
:1026D000DF91CF910C9406290C9406290C940629BD
:1026E0000C940629CF93DF93EC010E944F10CE018A
:1026F000DF91CF910C94062904970C9472130897DC
:102700000C9472130E970C9472130F931F93CF9324
:10271000DF93EC0181E592E0998388838E0106596D
:102720001F4FF801818592850E940629F801868154
:10273000978197FD03C060E00E94AA01CE018B96AD
:10274000DF91CF911F910F910C945F0FCF93DF9387
:10275000EC010E948513CE01DF91CF910C940629E4
:10276000CF93DF93EC010E94AD12CE01DF91CF91A8
:102770000C94062902970C94B013CF93DF93EC01CD
:102780000E94CA12CE01DF91CF910C9406290297C4
:102790000C94BD13CF93DF93EC010E945F0FCE0129
:1027A000DF91CF910C940629CF93DF93EC010E9427
:1027B000C312CE01DF91CF910C940629CF93DF9302
:1027C000EC010E94A612CE01DF91CF910C94062954
:1027D000CF93DF93EC010E94430FCE01DF91CF91A5
:1027E0000C940629CF93DF93EC010E940910CE01CF
:1027F000DF91CF910C9406290E970C94F213089751
:102800000C94F21304970C94F213CF93DF93EC0122
:102810000E947410CE01DF91CF910C940629CF93C2
:10282000DF93EC010E949810CE01DF91CF910C94C0
:102830000629CF93DF93EC010E949F12CE01DF9116
:10284000CF910C940629CF93DF93EC010E94BC1228
:10285000CE01DF91CF910C940629CF92DF92EF92B7
:10286000FF921F93CF93DF937C0189E491E0F701FE
:1028700091838083138212822483C62ED12C142F3D
:10288000110F222389F184E190E00E946A28EC0173
:102890002AE632E0FC0121933193CF010E94010F1F
:1028A000D986C8868A858F608F7E8A871B861C861C
:1028B0001D861E8611601F87188A198A8FE78A8BEA
:1028C0001B8A89E891E09983888385E991E09B835D
:1028D0008A83F701D383C283DF91CF911F91FF9049
:1028E000EF90DF90CF90089583E190E00E946A28F6
:1028F000EC012AE632E0FC0121933193CF010E94E2
:10290000010FD986C8868A858F608F7E8A871B864D
:102910001C861D861E8611601F87188A8FE7898B8B
:102920001A8A81E791E0998388838DE791E0CFCF80
:102930000E948F29FB0101900020E9F73197AF0138
:10294000461B570BDC01ED91FC910280F381E02DD9
:10295000099484E0E0E3F3E0DB0101900D928A95B5
:10296000E1F784E00895CF92DF92FF920F931F93D7
:10297000CF93DF93CDB7DEB72C970FB6F894DEBFB9
:102980000FBECDBF242F30E0E4E035952795EA95C2
:10299000E1F72115310511F080E027C0E42FEF7039
:1029A000E250EE30C8F7F0E0E852FB4E0C945B28A2
:1029B000E614E61403155D159D15FD1555165516FF
:1029C000551655165516551655166516DC015C93A9
:1029D00011966C93119712967C93129713962C91E3
:1029E0001397207F13962C9385E02C960FB6F894BE
:1029F000DEBF0FBECDBFDF91CF911F910F91FF9032
:102A0000DF90CF90089549875A876B877C87503F26
:102A100099F563E8629FA001639F500D1124480F50
:102A2000591FFA01E957FF4F1182108247575F4F34
:102A300061E0FA01608363E8629FD001639FB00D9B
:102A400011249C012A0F3B1F29573F4FF901608138
:102A500071816E377105F0F049855A856B857C85EB
:102A6000FC01E657FF4F4083518362837383DC018F
:102A700016961C9284E0B9CF43E8429FF001439F31
:102A8000F00D1124E80FF91FE757FF4F4081411166
:102A9000D2CF82CF1796A60FB71FA80FB91F83E01A
:102AA000FE013A9601900D928A95E1F7F901808135
:102AB00091810396918380836FCFF12C573F29F04A
:102AC000DC015C931396FC928FCFA3E8A29FF001E8
:102AD000A39FF00D11249C012E0F3F1F6901B9E83F
:102AE000CB0ED11CD601EC91EE2309F455CF890110
:102AF00009571F4FD801ED91FC91E038F10568F0BE
:102B0000FC01E657FF4F4083319650833196608336
:102B100031967083FC01F682ADCF2E0F3F1FD90195
:102B200017965C933196D801ED93FC93F6011082D1
:102B3000DC011696FC9282E058CF4D835E836F8352
:102B4000788760E0503F99F573E8729FA001739F0A
:102B5000500D1124480F591FFA01E957FF4F1182F8
:102B6000108247575F4F71E0FA01708373E8729FDC
:102B7000F001739FF00D11249C012E0F3F1FD9010E
:102B8000A957BF4F0D911C9111970F371105E8F010
:102B90000D811E812F813885FC01E657FF4F008390
:102BA000118322833383DC0116966C9363CF43E851
:102BB000429FF001439FF00D1124E80FF91FE757E2
:102BC000FF4F40814111D2CFE7CE3796E00FF11F82
:102BD000E80FF91F4E815F81518340834D915C91D5
:102BE00011974E5F5F4F4D935C9327573F4FF9010D
:102BF0001082DC0116966C939ECF49835A836B83B7
:102C00007C8360E0503F49F573E8729FA001739F99
:102C1000500D1124480F591FFA01E957FF4F118237
:102C2000108247575F4F71E0FA01708373E8729F1B
:102C3000D001739FB00D11249C012A0F3B1F890105
:102C400009571F4FF801408151814E37510598F0C7
:102C500009811A812B813C819FCF43E8429FF0017B
:102C6000439FF00D1124E80FF91FE757FF4F4081F4
:102C70004111DCCF91CE1796A40FB51FA80FB91F35
:102C800043E0FE01329601900D924A95E1F7F8017A
:102C9000408151814D5F5F4F5183408327573F4FA4
:102CA000D9011C92FC01668346CFDC015C9311962E
:102CB0006C93119712967C93129713962C911397FD
:102CC000207F13962C9381E090CEFC0154832581C4
:102CD000207F258383E089CE8F929F92AF92BF920F
:102CE000CF92DF92EF92FF920F931F93CF93DF93D8
:102CF00000D000D0CDB7DEB78C01FC01E657FF4F06
:102D00008081882309F14081518162817381108221
:102D1000D80116968C918F70F80123E8829FE00D00
:102D2000F11D1124CF01E757FF4F2081222339F0F5
:102D300089579F4FDC011D921C9281E08083C8015E
:102D40000E94B314811163C0809154049091550482
:102D5000A0915604B09157044091580450915904E1
:102D600060915A0470915B04841B950BA60BB70B02
:102D70008F739927AA27BB27892B8A2B8B2B09F4C2
:102D800057C08091580490915904A0915A04B09171
:102D90005B04880F991F880F991FFC01EC5AFC4FA8
:102DA0008081518162817381809054049090550498
:102DB000A0905604B0905704C0905804D090590485
:102DC000E0905A04F0905B048C149D04AE04BF04A0
:102DD000D1F0C0905804D0905904E0905A04F0907B
:102DE0005B04FFEFCF1ADF0AEF0AFF0A2FE3C222CC
:102DF000DD24EE24FF24C0925804D0925904E092BE
:102E00005A04F0925B04482F811199CF80E00F9013
:102E10000F900F900F90DF91CF911F910F91FF9026
:102E2000EF90DF90CF90BF90AF909F908F900895DC
:102E30008091F4040E944E0470E060E050E088232A
:102E400009F4B2CFC0905404D0905504E0905604D9
:102E5000F0905704BFEFCB1ADB0AEB0AFB0AEFE353
:102E6000CE22DD24EE24FF24809158049091590451
:102E7000A0915A04B0915B048C159D05AE05BF0569
:102E800009F47FCF8091F4040E944E0444E050E0A6
:102E9000BE016F5F7F4F8091F4040E942404049769
:102EA0000CF46FCF8091540490915504A091560476
:102EB000B0915704880F991F880F991F8C5A9C4F07
:102EC00049815A816B817C81DC014D935D936D93C7
:102ED0007C931397C0925404D0925504E092560408
:102EE000F0925704B7CF8F929F92AF92BF92EF921A
:102EF000FF921F93CF93DF93EC017C0124E0E20E5D
:102F0000F11CEE81FF81309791F0848595850097C3
:102F100021F486859785009751F08F3F980739F007
:102F2000DC01ED91FC910480F581E02D0995BE0155
:102F3000625F7F4F209711F470E060E0C7010E944C
:102F40008D060E9409034B015C017E01B3E1EB0E8B
:102F5000F11C0E940903681979098A099B09643FD9
:102F600071408105910588F4C7010E946C16182FE5
:102F7000682FCE010E94B80D143029F40E94090375
:102F80004B015C01E6CF123021F7DF91CF911F9109
:102F9000FF90EF90BF90AF909F908F9008950E9705
:102FA0000C9473170C9473177F928F929F92AF9229
:102FB000BF92CF92DF92EF92FF920F931F93CF9326
:102FC000DF93EC016C0183E1C80ED11CC6010E94A5
:102FD0006C16982E882309F47FC07E01A4E0EA0EC7
:102FE000F11CEE81FF81309711F1048515850115E3
:102FF000110509F06BC0068517852097E1F4B12C07
:10300000A12C1DC0A2E09A120FC0898D8F70FE0105
:10301000789EE00DF11D1124E656FF4F80819181CD
:10302000081B190B812C2EC0035011092BC010E076
:1030300000E0209739F05E01BEE0AB0EB11CA01697
:10304000B10629F4B801C7010E948D065801812CF0
:1030500000E811E083E8782E692DCE010E94B80DBA
:1030600084E09812CFCF898D8F70FE01789EE00D9D
:10307000F11D1124E656FF4F80819181081B190B29
:103080008824839417FD06C0C6010E946C16982EF2
:103090008111E2CF882001F18E819F810097E1F0BC
:1030A000DC01ED91FC910484F585E02DA701B501CB
:1030B000DF91CF911F910F91FF90EF90DF90CF9014
:1030C000BF90AF909F908F907F900994B12CA12CCE
:1030D000209709F0B0CFBBCFDF91CF911F910F9117
:1030E000FF90EF90DF90CF90BF90AF909F908F9028
:1030F0007F90089508970C94D4170C94D4173F929E
:103100004F925F926F927F928F929F92AF92BF92F7
:10311000CF92DF92EF92FF920F931F93CF93DF93A3
:10312000CDB7DEB72C970FB6F894DEBF0FBECDBF7C
:103130009C878B872E833F83488759876A8785E0E2
:10314000FE013696DE01119601900D928A95E1F707
:10315000C884D984C114D10409F449C04E805F8069
:103160009A859F703D80A92EB12CF20180810B853C
:103170001C850F551F4F803F21F4F801EA0DFB1D00
:1031800010AAD201760138016A0C7B1CF0E36F0EA5
:10319000711C9501220F331F2A0D3B1D200F311F7B
:1031A0004D01F3015081533008F072C081E0850F6A
:1031B00080834D91F901E50FF11D4083F1E0EF1A95
:1031C000F10871F7C40CD51CF60131972081273F17
:1031D00079F5682F70E0432D980153E0959F200DFD
:1031E000311D1124C9010E94BB0CF3011082EB8533
:1031F000FC85EF51FF4F8081882309F462C02C9633
:103200000FB6F894DEBF0FBECDBFDF91CF911F91F7
:103210000F91FF90EF90DF90CF90BF90AF909F9075
:103220008F907F906F905F904F903F900C94200311
:103230008330E9F6632D9801989F200D311D1124EC
:10324000C9010E94B00CD1CFC40CD51CF601319736
:103250008081873F49F043E0E416F10479F4632D5F
:10326000C4010E94B00C05C0432DB701C4010E94E7
:10327000BB0C0A0D1B1DF80110AAB9CF0A0D1B1DAE
:10328000F801E0AAA701B401C3010E94AE29AFCFA3
:103290003801F3E09F9F600C711C1124632DC30162
:1032A0000E94B00CF4E0EF16F10470F2632DC4013B
:1032B0000E94B00C23E0820E911C33E0E31AF10867
:1032C000F1CF2C960FB6F894DEBF0FBECDBFDF91C5
:1032D000CF911F910F91FF90EF90DF90CF90BF9013
:1032E000AF909F908F907F906F905F904F903F90A6
:1032F0000895FF920F931F93CF93DF93EC01F62E67
:1033000008811981C8010E943128F81621F06F2D1B
:10331000C8010E943928CE01DF91CF911F910F91F2
:10332000FF900895CF92DF92EF92FF920F931F9339
:10333000CF93DF93CDB7DEB76E970FB6F894DEBFAD
:103340000FBECDBF0A8F1B8F2C8F3D8F4E8F2C8DC4
:103350003D8D2230310508F4C3C0EA8DFB8DF1802C
:103360004DE7F412BDC08C018281853009F4C7C0DD
:10337000C8F4882309F450C0823009F0B1C0253068
:10338000310509F0ADC0838187FDAAC0D8015D96E3
:10339000ED91FC91309709F4A3C0880F8160868776
:1033A00017869EC0873009F4F6C008F4E6C088305E
:1033B00009F096C0F801EC56FF4F10829801275E85
:1033C0003F4FF801A801485F5F4FD9016D917D9192
:1033D0009D016115710549F08685880F8160DB01CB
:1033E0001E968C931E971F961C923196E417F50734
:1033F00061F7F801D788C08C85E090E00E946A28C8
:103400007C012C2D4D2DD80156966C910E942D14C7
:10341000F801F2A6E1A664C065E373E081EA94E0F6
:103420000E949A1468E473E081EA94E00E949A147E
:103430006EE473E081EA94E00E949A1481EA94E0D9
:103440000E94D50480EF898387EF8C8BFA8281E01C
:103450008B83F80182819381A481B5818C839D83C4
:10346000AE83BF83EC56FF4F80818887A801475EFB
:103470005F4FFE0131969801275D3F4FFE2EEF2EE4
:10348000DA018D919D91AD01009729F0DC011E9626
:103490008C918695808731964217530789F7D8011A
:1034A0009996ED91FC91309761F0828193810E9411
:1034B000150D8695898BD8019996ED91FC918481A3
:1034C0008A8BF80185A986958B8B2F2D84E1482F57
:1034D000698D607F3E2D50E088ED95E00E947F1859
:1034E0006E960FB6F894DEBF0FBECDBFDF91CF91C1
:1034F0001F910F91FF90EF90DF90CF9008952430AF
:10350000310571F7D80159969801275D3F4F95E035
:10351000ED91FD91309721F08685816086879787B0
:10352000A217B307A9F7F801E1A4F2A4E114F1048A
:10353000A1F0D70112968D919C910E94150DF70173
:10354000A281B381682F6160ED91FC911197068093
:10355000F781E02D75E0CD010995D801D5968C91C4
:10356000D5978160D5968C93D59795E0D6969C9308
:10357000F801EC56FF4F9083B3CF2430310509F0AA
:10358000AFCFF801EC56FF4F80819DE0F80195AB7D
:103590008F7086ABA5CFF801EC56FF4F60811A8281
:1035A0001982CE0101960E9479196801F9E1CF0EC6
:1035B000D11CF12CE12CD601ED91FD916D01BFEFF5
:1035C000EB1AFB0A309741F066856695FA82E9822C
:1035D000CE0101960E947919E8E0EE16F10459F740
:1035E000D8019996ED91FC919A973097B9F4579636
:1035F0006C91579758961C9189E090E09A83898343
:10360000CE0101960E9479198AE090E09A8389831D
:10361000612FCE0101960E94791962CF8281938138
:103620000E94150D682F6695D8019996ED91FC9131
:103630001481E2CF1F920F920FB60F9211242F9395
:103640003F938F939F93AF93BF93809199049091F1
:103650009A04A0919B04B0919C043091980423E0BB
:10366000230F2D3758F50196A11DB11D2093980405
:103670008093990490939A04A0939B04B0939C0424
:1036800080919D0490919E04A0919F04B091A0040C
:103690000196A11DB11D80939D0490939E04A0935B
:1036A0009F04B093A004BF91AF919F918F913F91E0
:1036B0002F910F900FBE0F901F90189526E8230FA3
:1036C0000296A11DB11DD2CF1F920F920FB60F927D
:1036D00011242F933F934F935F936F937F938F9317
:1036E0009F93AF93BF93EF93FF93E0911401F091F9
:1036F00015010995FF91EF91BF91AF919F918F9126
:103700007F916F915F914F913F912F910F900FBEDD
:103710000F901F9018951F920F920FB60F921124C1
:103720002F933F934F935F936F937F938F939F93C9
:10373000AF93BF93EF93FF93E0911201F0911301C8
:103740000995FF91EF91BF91AF919F918F917F91DB
:103750006F915F914F913F912F910F900FBE0F90FE
:103760001F9018951F920F920FB60F9211242F934E
:103770003F934F935F936F937F938F939F93AF93F9
:10378000BF93EF93FF93E0911001F0911101099520
:10379000FF91EF91BF91AF919F918F917F916F9129
:1037A0005F914F913F912F910F900FBE0F901F90FF
:1037B00018951F920F920FB60F9211242F933F93DB
:1037C0004F935F936F937F938F939F93AF93BF9329
:1037D000EF93FF93E0910E01F0910F010995FF9196
:1037E000EF91BF91AF919F918F917F916F915F9179
:1037F0004F913F912F910F900FBE0F901F901895F2
:103800001F920F920FB60F9211242F933F934F9355
:103810005F936F937F938F939F93AF93BF93EF9338
:10382000FF93E0910C01F0910D010995FF91EF914B
:10383000BF91AF919F918F917F916F915F914F91C8
:103840003F912F910F900FBE0F901F9018951F92D0
:103850000F920FB60F9211242F933F934F935F93C4
:103860006F937F938F939F93AF93BF93CF93EF9378
:10387000FF93C091E1008091E100837F8093E1009C
:10388000C3FF0FC01092E90081E08093EB0010921B
:10389000EC0082E38093ED001092710488E0809345
:1038A000F000C2FF1BC083E00E94160380916E04EB
:1038B000882341F080916E04815080936E048111C1
:1038C00001C05D9880916D04882341F080916D0462
:1038D000815080936D04811101C02898C4FF23C0DA
:1038E0008091E2008E7E81608093E2008091E10011
:1038F0008F7E8093E10080916F048E7E8061809343
:103900006F04FF91EF91CF91BF91AF919F918F91F4
:103910007F916F915F914F913F912F910F900FBECB
:103920000F901F901895C0FFECCF8091E2008E7E23
:1039300080618093E2008091E1008E7E8093E100BF
:1039400080916F048E7E8160DACF1F920F920FB646
:103950000F921124CF92DF92EF92FF920F931F9359
:103960002F933F934F935F936F937F938F939F9387
:10397000AF93BF93EF93FF93CF93DF93CDB7DEB7B2
:103980006C97DEBFCDBF1092E9008091E80083FF05
:1039900025C068E0CE0145960E94570482EF8093CF
:1039A000E8008D8987FF39C09091E80090FFFCCF37
:1039B000982F907609F034C19E894F89588D2F89B0
:1039C000F88C911131C0803861F58091700480933A
:1039D000F1001092F1008EEF8093E8006C960FB624
:1039E000F894DEBF0FBECDBFDF91CF91FF91EF9175
:1039F000BF91AF919F918F917F916F915F914F9107
:103A00003F912F911F910F91FF90EF90DF90CF90FA
:103A10000F900FBE0F901F9018959EEF9093E800A7
:103A2000C7CF1092F100D5CF913059F48111D3CF87
:103A30004130510581F6809170048D7F8093700430
:103A4000CACF933049F48111C6CF4130510519F6E0
:103A5000809170048260F2CF953041F48091E8004B
:103A600080FFFCCF20682093E300B5CF963009F0AB
:103A7000A9C00B8D1C8D22E01092E90010926B04FE
:103A800010926A04F2122EC0109269041092680417
:103A90000E9478041F8299E09983FA8291E09E83C4
:103AA00090EA98879AEF998720916A0430916B0485
:103AB000275F3F4F3C832B838D831092E900109248
:103AC0006B0410926A04109369040093680449E03F
:103AD00050E0BE016F5F7F4F80E00E9453030E9461
:103AE000780479CF10936904009368040E946404F9
:103AF000DC0112960D911C910115110509F451C1BB
:103B0000D801ED91FC910480F581E02DBE016B5E42
:103B10007F4FC8010995009709F03EC1F801008563
:103B20001185EACFF3E0FF120EC08F89882309F4D4
:103B300040C0823061F440E861E18CE191E00E9494
:103B4000D71E811148CF81E28093EB0047CF8130AF
:103B500029F440E86BE080E191E0F1CF833099F700
:103B60000E946404DC011296ED90FC908E010F5FC0
:103B70001F4F6801E114F10479F0D701ED91FC9138
:103B80000680F781E02DB801C7010995080F111DC6
:103B9000F701E084F184EECFD8011C92F601019088
:103BA0000020E9F73197BF016C197D0940E0C6019B
:103BB000C6CF6AEF70E0FB01449150E080E80E94BC
:103BC000530309CF973009F4BECF983021F481E038
:103BD0008093F10000CF993009F0FDCE837009F099
:103BE000B2CFE7E1F1E081E031E096E321912223D9
:103BF00071F08093E9003093EB00DF0111972C9175
:103C00002093EC009093ED008F5F873079F78EE77B
:103C10008093EA001092EA008F8980937104DBCED2
:103C20008B8D9C8D1092E90010926B0410926A04A7
:103C30009093690480936804898D811192C08E8964
:103C40009D89913A49F4813209F07DCF47E050E0F7
:103C500064E071E080E0B3CF913209F074CF833239
:103C600069F48F89988DB0E0A0E080930001909373
:103C70000101A0930201B0930301ADCE803269F43B
:103C80008091E80082FFFCCF67E084E091E00E9431
:103C900057048BEF8093E8009ECE823209F09BCED2
:103CA0008F8980930B01EEEFFFE7859194918B3F15
:103CB0009C4D51F1E0E0F8E0809104019091050104
:103CC000A0910601B0910701803B9440A105B10588
:103CD000F1F480910B0180FD1AC0EE3F8AE0F807F5
:103CE00089F587E797E791838083809160008093CF
:103CF0006C0488E19BE00FB6F894A895809360006F
:103D00000FBE9093600067CEEEEFFAE0D5CF8081D2
:103D100091818737974709F05ECEA8958091600022
:103D200088618093600080916C0480936000EE3F16
:103D30002AE0F20789F08091FE0A9091FF0A9183B0
:103D4000808349CE808191818737980751F2909383
:103D5000FF0A8093FE0AC5CF1092FF0A1092FE0A56
:103D60003ACE0E946404DC0112960D911C9101155B
:103D7000110509F4E8CED801ED91FC910190F08194
:103D8000E02DBE016B5E7F4FC8010995811123CEE6
:103D9000F80100851185EBCF181619060CF41BCE1F
:103DA000D2CEF1E0FF12BECE6EEF70E004CFEF9204
:103DB000FF920F931F93CF93DF93F82E192FE62EC8
:103DC000042F81E0860F880F0E94250383E00E9464
:103DD0002503CF2DD12FEC0EFD2EF11CCE15DF05C6
:103DE000B9F007FF13C0FE0184910E942503182F2C
:103DF00080E00E942503812321968111EFCFDF917E
:103E0000CF911F910F91FF90EF9008958881EDCF92
:103E100081E0F5CF61E08DE00E94AA0161E08DE0D4
:103E20000E947C0162E370E080E090E00E94D70293
:103E300060E08DE00E947C0162E370E080E090E051
:103E40000E94D70261E08DE00E947C0162E370E095
:103E500080E090E00E94D70260E08DE00E947C014B
:103E600062E573E080E090E00E94D702D7CF0F9325
:103E70001F93CF93DF93EC018B018885998584177D
:103E80009507F9F41D861C868A859B85009741F06D
:103E9000DC01ED91FC910680F781E02DAE010995E2
:103EA0008A819B81009701F1DC01ED91FC91068CE8
:103EB000F78DE02DAE01B801DF91CF911F910F91E9
:103EC00009946E857F856017710771F41F861E86C1
:103ED0008A859B85009741F0DC01ED91FC9106807D
:103EE000F781E02DAE01E8CFDF91CF911F910F91C7
:103EF000089504970C94371F0F931F93CF93DF936C
:103F0000EC01888599858417950701F58B017D87DC
:103F10006C878A859B85009741F0DC01ED91FC91CF
:103F20000480F581E02DAE0109958A819B8100977F
:103F3000F9F0DC01ED91FC91048CF58DE02DAE01E2
:103F4000B801DF91CF911F910F9109948E859F85C4
:103F5000892B71F47F876E878A859B85009741F056
:103F6000DC01ED91FC910480F581E02DAE01E9CFFB
:103F7000DF91CF911F910F91089504970C947C1FAE
:103F8000CF93DF93EC018FEE91E09983888383E1F7
:103F900092E09D838C83CE010E94A10ACE010496FB
:103FA0000E94200B8FEA91E099838883CE01DF91F4
:103FB000CF910C94270B04970C94C01FCF93DF93E1
:103FC000EC010E94C01FCE01DF91CF910C94062915
:103FD00004970C94DE1FCF92DF92EF92FF920F9323
:103FE0001F93CF93DF93CDB7DEB760970FB6F894EA
:103FF000DEBF0FBECDBF1092A4041092A30488EEC2
:1040000093E0A0E0B0E08093A5049093A604A09371
:10401000A704B093A80481ED91E09093A20480934B
:10402000A1048FEF9FEF9093AE048093AD0482E0E4
:104030008093F5048093F6048BEF94E09093F8045A
:104040008093F7041092FA041092F90483EE91E041
:104050009093F2048093F10480E88093FB0481E85C
:104060008093FC040E946404FC0181819091F5041A
:10407000482F490F5527551F48305105B4F5A281E7
:10408000B381109721F521EF34E03383228320811F
:104090002093F3048093F4048091F604820F8083CC
:1040A0004091F704642F7091F804862F841B8917C0
:1040B000E0F48181DB015D91BD01282F30E02A5EB3
:1040C0003E4FD9015C938F5F8183EFCFD901189662
:1040D0002D913C91199721153105C1F721EF34E05D
:1040E00019963C932E931897D2CF80913505811164
:1040F00095C0109200051092FF04109204051092D2
:10410000030581E292E09093FE048093FD0487E32F
:1041100092E090930205809301058AE191E4A0E08A
:10412000B0E08093050590930605A0930705B09332
:1041300008051092090510920A0510920B051092BD
:104140000C050E94E60100910505109106052091DD
:10415000070530910805601B710B820B930B609370
:10416000090570930A0580930B0590930C05109236
:104170000E0510920D051092100510920F05109269
:104180001205109211051092140510921305109249
:1041900018051092170510921C0510921B052FEEA2
:1041A00031E0309316052093150583E192E090935A
:1041B0001A058093190510921E0510921D05109284
:1041C000200510921F0510922205109221051092D1
:1041D00024051092230510922805109227051092AD
:1041E0002C0510922B0530932605209325059093DE
:1041F0002A058093290510922E0510922D05109204
:10420000300510922F051092320510923105109250
:1042100034051092330581E0809335058DEF94E0ED
:1042200090933E0580933D051092DB051092DA05D0
:104230001092DF051092DE0580913F0590914005B8
:10424000892B31F480EE95E09093400580933F05F3
:10425000E0914105F0914205F093E505E093E40516
:10426000309721F080EE95E09383828380EE95E095
:1042700090934205809341051092E3051092E20568
:104280001092E9051092E80580915D021092EB050D
:104290001092EC051092ED058093EE051092EF055B
:1042A0008091F005807F8093F0058091F105807FFB
:1042B0008093F105E2EFF5E083E8DF011D928A9536
:1042C000E9F7109275061092760610927706109212
:1042D0007806E9EAF6E080E1DF011D928A95E9F7C8
:1042E00011E01093B90684EE92E09093D905809383
:1042F000D8058AE093E09093DD058093DC0588E1A2
:1043000093E09093E1058093E00584E293E090933D
:10431000E7058093E60588E0E3E2F1E0DE01199627
:1043200001900D928A95E1F788E0EBE2F1E0DE0181
:10433000119601900D928A95E1F781E592E09093B4
:104340004405809343058EE695E00E94010F85E4C5
:1043500092E090936F0580936E0583E090E09093D8
:1043600075058093740582E090E0909377058093C3
:10437000760589E780937805109279058CE0E3E370
:10438000F1E0AAE7B5E001900D928A95E1F70CE023
:10439000E6E8F5E0DF01402F1D924A95E9F710921B
:1043A0009205109293051092940510929505109223
:1043B0009605109297051092980510929905109203
:1043C0009A0510929B0510929C0510929D051092E3
:1043D0009E0510929F051092A0051092A10582E300
:1043E00090E0A0E0B0E08093A2059093A305A09395
:1043F000A405B093A5051092A6051092A7051092EA
:10440000A8051092A9050E940903C090A205D090AA
:10441000A305E090A405F090A5056C197D098E090F
:104420009F096093A6057093A7058093A8059093B4
:10443000A9051092AA058FEF8093AB058FE78093B3
:10444000AC051092AE051092B5051092BC05109205
:10445000BD051092BE051092BF051093BB051093C9
:10446000B8051092B90582E08093BA051093AD05A6
:104470008CE090E09093B2058093B1050E946A2889
:104480009093B7058093B605009709F4C6C0DC0188
:104490001D920A95E9F784E090E09093B00580932F
:1044A000AF0584E090E09093B4058093B3058091CC
:1044B000AE05882341F061E084E00E94AA0160E03B
:1044C00084E00E947C01EAE9F1E0E491F0E0EE0F83
:1044D000FF1FE857FE4F859194919093C1058093FB
:1044E000C005EDE6F1E0E491E093C2051092C3054A
:1044F0001092C4051092C5051092C6051092C7050A
:104500001092C80583E090E0A0E0B0E08093C90578
:104510009093CA05A093CB05B093CC051092CD051E
:104520001092CE051092CF051092D0050E9409037B
:104530000091C9051091CA052091CB053091CC0599
:10454000601B710B820B930B6093CD057093CE05AE
:104550008093CF059093D00581E090E09093D205B1
:104560008093D1051092D3051092D4051092D505F1
:104570001092D6051092D70588E493E00E94942902
:1045800061E573E00E94FD270E94DF27082F61E5A7
:1045900073E090E080E00E94FD270E94DF27182F43
:1045A00061E573E090E080E00E94FD270E94DF2734
:1045B0000093450510934605909348058093470561
:1045C000BE016F5F7F4FA9E4B5E0CE0109969C0163
:1045D000FB014191BF014D93FC014191CF01179621
:1045E0004C9317972617370799F785E0809359055D
:1045F00081E480935A0581E080935B0560960FB655
:10460000F894DEBF0FBECDBFDF91CF911F910F9108
:10461000FF90EF90DF90CF9008951092B205109226
:10462000B1051092B0051092AF053BCFCF93DF9349
:1046300000D000D000D01F92CDB7DEB7789484B5FB
:10464000826084BD84B5816084BD85B5826085BD8E
:1046500085B5816085BD80916E00816080936E001C
:10466000109281008091810082608093810080910E
:1046700081008160809381008091800081608093BF
:1046800080008091910082608093910080919100E0
:104690008160809391008091900081608093900070
:1046A0008091C10084608093C1008091C1008260CC
:1046B0008093C1008091C10081608093C10080918E
:1046C000C30081608093C3008091C00082608093AA
:1046D000C0008091C20081608093C20080917A0006
:1046E000846080937A0080917A00826080937A005F
:1046F00080917A00816080937A0080917A0080684E
:1047000080937A00109271041092700410926F04DA
:104710008091D70081608093D70080EA8093D80091
:1047200089B5806189BD89B5826089BD09B400FE03
:10473000FDCF61E070E080E090E00E94D7028091C0
:10474000D8008F7C80618093D8008091E000807FCA
:104750008093E0008091E1008E7E8093E1008DE007
:104760008093E200559A209A5D9828988FEF9FEFEA
:104770009093AE048093AD0490E080E00E943128D5
:104780008093D70579E4A72E75E0B72EECE56E2E61
:10479000E5E07E2ED12CC12CF5ECEF2EF1E0FF2EC2
:1047A0000FEFC01AD00AC6010E943128182F87FFC8
:1047B00003C0D50118961C91F50101915F0181E1BB
:1047C00090E00E946A289A8389830E94010F802FBB
:1047D00090E0A981BA8117969C938E9316971996AB
:1047E0001C921E9218971B961C921E921A971D9649
:1047F0001C921E921C97110F11601E961C931E97FF
:104800001F961C921F971196FC92EE92F301A193B2
:10481000B1933F01F8E0CF16D10411F689E090E0A2
:104820000E94312889838AE090E00E9431288D839C
:10483000098107FF03C010915A0519830D8107FFF5
:1048400003C010915B051D8385E090E00E946A28FB
:104850008C0121E03D81311101C020E0498160914E
:104860005905C8010E942D1410936D0500936C0525
:1048700062E081E00E94AA018091B3059091B405A5
:1048800097FD08C061E00E94AA0160E08091B30535
:104890000E947C0181E08093AE058091B6059091E5
:1048A000B705892B11F00E940B026091B5056B30A2
:1048B00029F12091B6053091B7056150C9F070E03B
:1048C0008FEF9AE00E944728F9014091B10550917D
:1048D000B205CF01821B930B8417950760F44081CA
:1048E000469FC001479F900D112490833196EDCFD4
:1048F00070E060E0E9CF8BE08093B50500913D0565
:1049000010913E051A830983D80116968D919C91CA
:104910001797892BB1F512968D919C91892B89F56A
:1049200000917204109173040115110561F4009156
:104930004105109142050115110519F008501109A2
:1049400011F40E940A1FE980FA80B8E1EB0EF11C15
:10495000B70189819A810E948C0AB701C801049627
:104960000E94760AE980FA80E8E2EE0EF11CB701B7
:1049700089819A8104960E94760AB701C8010E9433
:104980008C0A00919404109195040115110561F0B1
:10499000D801ED91FC91008CF18DE02DC8010995B5
:1049A000F80102811381F1CF00913F05109140057C
:1049B0000115110561F0D801ED91FC910480F5819C
:1049C000E02DC8010995F80102811381F1CF009112
:1049D0009004109191040115110561F0D801ED9139
:1049E000FC910480F581E02DC8010995F801028150
:1049F0001381F1CF00918C0410918D0401151105E4
:104A000061F0D801ED91FC910480F581E02DC801A1
:104A10000995F80102811381F1CF0091880410916A
:104A200089040115110561F0D801ED91FC91048014
:104A3000F581E02DC8010995F80102811381F1CFBC
:104A400000918404109185040115110561F0D801CD
:104A5000ED91FC910480F581E02DC8010995F801E4
:104A600002811381F1CF009180041091810401151E
:104A7000110561F0D801ED91FC910480F581E02DE4
:104A8000C8010995F80102811381F1CF00917C04DE
:104A900010917D040115110561F0D801ED91FC9193
:104AA0000480F581E02DC8010995F8010281138188
:104AB000F1CF00917804109179040115110561F08E
:104AC000D801ED91FC910480F581E02DC801099594
:104AD000F80102811381F1CF0091740410917504E3
:104AE0000115110561F0D801ED91FC910480F5816B
:104AF000E02DC8010995F80102811381F1CF0E94D0
:104B0000E601A981BA8118960D911D912D913C91D4
:104B10001B97601B710B820B930BFD0164877587DC
:104B20008687978783E495E09093E9058093E8056D
:104B3000C0903F01D0904001E0904101609042015F
:104B4000709043018090440160E0A62E60E0B62E94
:104B500081E00E9453019A8389830E940903009196
:104B6000D3051091D4052091D5053091D605601B51
:104B7000710B820B930B673471058105910510F160
:104B80008091D1059091D205892B61F409811A8118
:104B90000130110539F48091AA058130B1F158F145
:104BA0008230E9F109811A811093D2050093D10571
:104BB0000E9409036093D3057093D4058093D505B3
:104BC0009093D60500913D0510913E051F830E83FD
:104BD00000919404109195040115110551F1D8012B
:104BE000ED91FC91048CF58DE02DC8010995F8013B
:104BF00002811381F1CF81E00E94ED0C6092C30528
:104C00007092C4058092C505CDCF82E00E94ED0C64
:104C1000C092C305D092C405E092C505C3CF80E021
:104C20000E94ED0C1092C3051092C4051092C505A8
:104C3000B9CF00917404109175040115110561F04C
:104C4000D801ED91FC910680F781E02DC80109950E
:104C5000F80102811381F1CF00913F0510914005C9
:104C60000115110561F0D801ED91FC910680F781E5
:104C7000E02DC8010995F80102811381F1CF00915F
:104C80009004109191040115110561F0D801ED9186
:104C9000FC910084F185E02DC8010995F80102819D
:104CA0001381F1CF00918C0410918D040115110531
:104CB00061F0D801ED91FC910084F185E02DC801EF
:104CC0000995F80102811381F1CF009188041091B8
:104CD00089040115110561F0D801ED91FC91008462
:104CE000F185E02DC8010995F80102811381F1CF0A
:104CF00000918404109185040115110561F0D8011B
:104D0000ED91FC910084F185E02DC8010995F80131
:104D100002811381F1CF009180041091810401156B
:104D2000110561F0D801ED91FC910084F185E02D31
:104D3000C8010995F80102811381F1CF00917C042B
:104D400010917D040115110561F0D801ED91FC91E0
:104D50000084F185E02DC8010995F80102811381D5
:104D6000F1CF00917804109179040115110561F0DB
:104D7000D801ED91FC910084F185E02DC8010995E1
:104D8000F80102811381F1CF0E94E601AE81BF815B
:104D90001C960D911D912D913C911F9709831A83AB
:104DA0002B833C8318962D903D904D905C901B97E3
:104DB000AB01BC01401B510B620B730B4215530539
:104DC0006405750560F0D901C801820D931DA41D0D
:104DD000B51DEE81FF8184879587A687B7870091EF
:104DE0009404109195041A83098309811A8101158D
:104DF000110581F0D801ED91FC91028CF38DE02D2D
:104E0000C8010995E981FA810280F381E02DFA83D6
:104E1000E983EBCF88ED95E00E94D4170E94090347
:104E20002090CD053090CE054090CF055090D00514
:104E30000091C9051091CA052091CB053091CC0590
:104E4000AB01BC01421953096409750940175107A8
:104E50006207730750F1D201C101800F911FA21F99
:104E6000B31F8093CD059093CE05A093CF05B0934B
:104E7000D0055091C3054091C4053091C5052091DE
:104E8000C6059091C7058091C805521315C09413AB
:104E900019C038131DC00E9409036093CD0570939B
:104EA000CE058093CF059093D005A114B10409F4E9
:104EB0004FCE0E9400004CCE251708F057C02F5F40
:104EC0002093C605941708F056C09F5F9093C705BE
:104ED000831708F055C08F5F8093C80530E020E04D
:104EE0008091AF059091B005A091B605B091B7053E
:104EF0002817390708F055C0F091C805F98360916B
:104F0000C7057091C6054091B505442361F0749FB3
:104F1000C0011124792F469FC0011124692F4F9F92
:104F2000A00111245983E091BB058091B805E813D5
:104F30002CC0C901880F991F820F931F8A0F9B1FD6
:104F4000E091B805E80FF92FF11D7083E091B905E4
:104F5000E80FF92FF11D60835091BA05850F911D5F
:104F6000E981DC01EC932F5F3F4FBACF521708F075
:104F7000A9CF2150A5CF491708F0AACF9150A6CFAD
:104F8000381708F0ABCF8150A7CFC901880F991F00
:104F9000880F991F8A0F9B1FE80FF92FF11D1082B0
:104FA000CFCFAB2B09F477CF0E940B0274CF83E4F1
:104FB00095E00E94851388ED95E00C944F10FC015C
:104FC00088279927E89421912032E9F3293010F0BD
:104FD0002E30C8F32B3241F02D3239F4689404C0DE
:104FE0000E942928820F911D219120532A30C0F35D
:104FF0001EF4909581959F4F08954AEB56E00E94CC
:1050000002280895FA01A191B081009719F4109730
:10501000E1F0CD01DC01CD010D90002011F4C001C3
:1050200013C0FB012191222319F02015D9F7F3CFEA
:10503000FB012191201519F41E92119606C022231E
:10504000C1F70D900020A1F7D001FA01A193B08320
:1050500008957AE0979F902D879F802D910D1124C0
:105060000895F999FECF92BD81BDF89A992780B530
:105070000895262FF999FECF1FBA92BD81BD20BD9C
:105080000FB6F894FA9AF99A0FBE01960895AA1BE2
:10509000BB1B51E107C0AA1FBB1FA617B70710F023
:1050A000A61BB70B881F991F5A95A9F78095909555
:1050B000BC01CD010895EE0FFF1F0590F491E02D86
:1050C00009942A193B094C095D096E097F09800B77
:1050D000910B08950F931F93CF93DF938230910527
:1050E00010F482E090E0E091BE06F091BF0630E05F
:1050F00020E0B0E0A0E0309799F42115310509F4E3
:105100004AC0281B390B24303105D8F58A819B8190
:105110006115710589F1FB0193838283FE0111C042
:10512000408151810281138148175907E0F04817E7
:10513000590799F4109761F012960C9312971396F1
:105140001C933296CF01DF91CF911F910F9108955B
:105150000093BE061093BF06F4CF2115310551F020
:105160004217530738F0A901DB019A01BD01DF01A5
:10517000F801C1CFEF01F9CF9093BF068093BE062F
:10518000CDCFFE01E20FF31F81939193225031099D
:1051900039832883D7CF2091BC063091BD06232BBD
:1051A00041F420911F01309120013093BD062093DE
:1051B000BC0620911D0130911E012115310541F4DD
:1051C0002DB73EB74091210150912201241B350B90
:1051D000E091BC06F091BD06E217F307A0F42E1B88
:1051E0003F0B2817390778F0AC014E5F5F4F24174B
:1051F000350748F04E0F5F1F5093BD064093BC0625
:10520000819391939FCFF0E0E0E09CCFCF93DF9329
:105210000097E9F0FC01329713821282A091BE063A
:10522000B091BF06ED0130E020E01097A1F420819D
:105230003181820F931F2091BC063091BD06281743
:10524000390709F061C0F093BD06E093BC06DF9119
:10525000CF910895EA01CE17DF07E8F54A815B8117
:105260009E0141155105B1F7E901FB83EA8349919C
:105270005991C40FD51FEC17FD0761F4808191810E
:105280000296840F951FE901998388838281938117
:105290009B838A83F0E0E0E012968D919C911397B6
:1052A0000097B9F52D913C911197CD010296820F8F
:1052B000931F2091BC063091BD062817390739F697
:1052C000309751F51092BF061092BE06B093BD06FE
:1052D000A093BC06BCCFD383C28340815181840F8D
:1052E000951FC817D90761F44E5F5F4F8881998178
:1052F000480F591F518340838A819B819383828306
:105300002115310509F0B0CFF093BF06E093BE063A
:105310009ECFFD01DC01C0CF13821282D7CF81E086
:1053200090E0F8940C94BE290F931F93CF93DF93D2
:105330008C01FC0101900020E9F7CF01801B910B4B
:105340000E946A28EC01009719F0B8010E94B72961
:10535000CE01DF91CF911F910F910895FB01DC01E8
:1053600002C001900D9241505040D8F70895FB01C2
:10537000DC0101900D920020E1F7089510E0CCEDE2
:10538000D0E004C0FE010E945B282196CD3DD107EC
:06539000C9F7F894FFCFFD
:10539600FFFFFFFF00E100000000000015031503FA
:1053A60015031503150300C180810000000000C02D
:1053B6000680004748055B4A495E0A1C1B1A1912FB
:1053C600131415010306080A0002040507090B1940
:1053D60019D219D21900000000741005140000003B
:1053E60000430FE81300000000A612DE13A90DCF3C
:1053F6000F00000000C312D413AF0DEE0F00000023
:1054060000CA12BD13F50EF10EFEFF0000D612C73C
:1054160013AF0DEE0F00000000AD12B013FD0EF934
:105426000EFEFF0000B912BA13A90DCF0F0000003F
:1054360000200B4B13401340133F130000000000E5
:105446000000009814981498149814401340133FC1
:1054560013000000009F1062131C0D760F00000061
:1054660000BF04A904D804D5042705DD04FF040001
:105476000000003A053C053705A91400000000C0ED
:105486001FDE1FF908BE08B008A208A0092A091ADB
:1054960009F908BE08B008A20807097C1F371FFCD7
:1054A600FF0000DB1FE81FBD1F791F170900000062
:1054B60000390B55135807FC06F206E9064013405F
:1054C600133F13FCFF0000610B5F13401340133FB3
:1054D60013000000005F0FCA138710BB1000000006
:1054E6000097109219971096108513A613000000C6
:1054F6000000270F41130000000000000000981470
:10550600981400000000000000002C13F312E312B0
:10551600D912401340133F133B1398149814981450
:10552600981498149814FCFF000000000000401323
:1055360040133F13F8FF0000000000003A139814D0
:10554600F2FF0000000000003C1398140000000069
:1055560000000000981498149814981440134013EF
:105566003F13FCFF000000000000401340133F13F0
:10557600000000004F1072132C13F312E312D9121D
:10558600401340133F13F00E7D188A0D6A0D7F18E5
:10559600510D4F0DD217FCFF000062107C13401313
:1055A60040133F13F8FF000065107F13EF0E7A18C3
:1055B600F2FF0000681082133C13CF173C3F3E00F9
:1055C6004D494449004669726D776172652076657A
:1055D6007273696F6E3A2000312E302E30000D0A3C
:0455E600002E000093
:00000001FF
